{
  "_format": "hh-sol-artifact-1",
  "contractName": "Playlist",
  "sourceName": "contracts/Playlist.sol",
  "abi": [
    {
      "inputs": [],
      "stateMutability": "payable",
      "type": "constructor"
    },
    {
      "anonymous": false,
      "inputs": [
        {
          "indexed": true,
          "internalType": "address",
          "name": "from",
          "type": "address"
        },
        {
          "indexed": false,
          "internalType": "string",
          "name": "playlistLink",
          "type": "string"
        },
        {
          "indexed": false,
          "internalType": "uint256",
          "name": "timestamp",
          "type": "uint256"
        }
      ],
      "name": "NewPlaylist",
      "type": "event"
    },
    {
      "inputs": [],
      "name": "getAllPlaylists",
      "outputs": [
        {
          "components": [
            {
              "internalType": "address",
              "name": "user",
              "type": "address"
            },
            {
              "internalType": "string",
              "name": "playlistLink",
              "type": "string"
            },
            {
              "internalType": "uint256",
              "name": "timestamp",
              "type": "uint256"
            }
          ],
          "internalType": "struct Playlist.PlaylistStruct[]",
          "name": "",
          "type": "tuple[]"
        }
      ],
      "stateMutability": "view",
      "type": "function"
    },
    {
      "inputs": [],
      "name": "getPlaylistsCount",
      "outputs": [
        {
          "internalType": "uint256",
          "name": "",
          "type": "uint256"
        }
      ],
      "stateMutability": "view",
      "type": "function"
    },
    {
      "inputs": [
        {
          "internalType": "address",
          "name": "",
          "type": "address"
        }
      ],
      "name": "lastWavedAt",
      "outputs": [
        {
          "internalType": "uint256",
          "name": "",
          "type": "uint256"
        }
      ],
      "stateMutability": "view",
      "type": "function"
    },
    {
      "inputs": [
        {
          "internalType": "string",
          "name": "_playlistLink",
          "type": "string"
        }
      ],
      "name": "submitPlaylist",
      "outputs": [],
      "stateMutability": "nonpayable",
      "type": "function"
    }
  ],
  "bytecode": "0x60806040526200004f6040518060400160405280601881526020017f49276d2066726f6d2074686520636f6e7374727563746f7200000000000000008152506200005560201b6200068b1760201c565b620001e9565b620000f5816040516024016200006c919062000162565b6040516020818303038152906040527f41304fac000000000000000000000000000000000000000000000000000000007bffffffffffffffffffffffffffffffffffffffffffffffffffffffff19166020820180517bffffffffffffffffffffffffffffffffffffffffffffffffffffffff8381831617835250505050620000f860201b60201c565b50565b60008151905060006a636f6e736f6c652e6c6f679050602083016000808483855afa5050505050565b60006200012e8262000186565b6200013a818562000191565b93506200014c818560208601620001a2565b6200015781620001d8565b840191505092915050565b600060208201905081810360008301526200017e818462000121565b905092915050565b600081519050919050565b600082825260208201905092915050565b60005b83811015620001c2578082015181840152602081019050620001a5565b83811115620001d2576000848401525b50505050565b6000601f19601f8301169050919050565b61118f80620001f96000396000f3fe608060405234801561001057600080fd5b506004361061004c5760003560e01c8063502213b6146100515780637280345b1461006d578063a42a46631461008b578063abceff95146100bb575b600080fd5b61006b600480360381019061006691906109ce565b6100d9565b005b6100756104d7565b6040516100829190610c37565b60405180910390f35b6100a560048036038101906100a091906109a5565b610628565b6040516100b29190610d3b565b60405180910390f35b6100c3610640565b6040516100d09190610d3b565b60405180910390f35b42610384600260003373ffffffffffffffffffffffffffffffffffffffff1673ffffffffffffffffffffffffffffffffffffffff168152602001908152602001600020546101279190610e1d565b10610167576040517f08c379a000000000000000000000000000000000000000000000000000000000815260040161015e90610cdb565b60405180910390fd5b42600260003373ffffffffffffffffffffffffffffffffffffffff1673ffffffffffffffffffffffffffffffffffffffff1681526020019081526020016000208190555060016000808282546101bd9190610e1d565b925050819055506102036040518060400160405280601c81526020017f2573206a757374207375626d6974746564206120706c61796c6973740000000081525033610724565b6000606460015442446102169190610e1d565b6102209190610e1d565b61022a9190610f54565b905061026b6040518060400160405280600a81526020017f47656e6572617465643a00000000000000000000000000000000000000000000815250826107c0565b8060018190555060328110156103b7576102ba6040518060400160405280600681526020017f257320574f4e000000000000000000000000000000000000000000000000000081525033610724565b6000655af3107a4000905047811115610308576040517f08c379a00000000000000000000000000000000000000000000000000000000081526004016102ff90610d1b565b60405180910390fd5b60003373ffffffffffffffffffffffffffffffffffffffff168260405161032e90610c22565b60006040518083038185875af1925050503d806000811461036b576040519150601f19603f3d011682016040523d82523d6000602084013e610370565b606091505b50509050806103b4576040517f08c379a00000000000000000000000000000000000000000000000000000000081526004016103ab90610cfb565b60405180910390fd5b50505b600360405180606001604052803373ffffffffffffffffffffffffffffffffffffffff16815260200184815260200142815250908060018154018082558091505060019003906000526020600020906003020160009091909190915060008201518160000160006101000a81548173ffffffffffffffffffffffffffffffffffffffff021916908373ffffffffffffffffffffffffffffffffffffffff1602179055506020820151816001019080519060200190610476929190610885565b506040820151816002015550503373ffffffffffffffffffffffffffffffffffffffff167f8537958e01b1734839d1f7fbc46c90413cb5a86d76cb0e40fa98083996ecff1783426040516104cb929190610cab565b60405180910390a25050565b60606003805480602002602001604051908101604052809291908181526020016000905b8282101561061f57838290600052602060002090600302016040518060600160405290816000820160009054906101000a900473ffffffffffffffffffffffffffffffffffffffff1673ffffffffffffffffffffffffffffffffffffffff1673ffffffffffffffffffffffffffffffffffffffff16815260200160018201805461058490610ef1565b80601f01602080910402602001604051908101604052809291908181526020018280546105b090610ef1565b80156105fd5780601f106105d2576101008083540402835291602001916105fd565b820191906000526020600020905b8154815290600101906020018083116105e057829003601f168201915b50505050508152602001600282015481525050815260200190600101906104fb565b50505050905090565b60026020528060005260406000206000915090505481565b60006106836040518060400160405280601d81526020017f546f74616c20506c61796c69737473205375626d69747465643a2025640000008152506000546107c0565b600054905090565b6107218160405160240161069f9190610c59565b6040516020818303038152906040527f41304fac000000000000000000000000000000000000000000000000000000007bffffffffffffffffffffffffffffffffffffffffffffffffffffffff19166020820180517bffffffffffffffffffffffffffffffffffffffffffffffffffffffff838183161783525050505061085c565b50565b6107bc828260405160240161073a929190610c7b565b6040516020818303038152906040527f319af333000000000000000000000000000000000000000000000000000000007bffffffffffffffffffffffffffffffffffffffffffffffffffffffff19166020820180517bffffffffffffffffffffffffffffffffffffffffffffffffffffffff838183161783525050505061085c565b5050565b61085882826040516024016107d6929190610cab565b6040516020818303038152906040527f9710a9d0000000000000000000000000000000000000000000000000000000007bffffffffffffffffffffffffffffffffffffffffffffffffffffffff19166020820180517bffffffffffffffffffffffffffffffffffffffffffffffffffffffff838183161783525050505061085c565b5050565b60008151905060006a636f6e736f6c652e6c6f679050602083016000808483855afa5050505050565b82805461089190610ef1565b90600052602060002090601f0160209004810192826108b357600085556108fa565b82601f106108cc57805160ff19168380011785556108fa565b828001600101855582156108fa579182015b828111156108f95782518255916020019190600101906108de565b5b509050610907919061090b565b5090565b5b8082111561092457600081600090555060010161090c565b5090565b600061093b61093684610d7b565b610d56565b90508281526020810184848401111561095357600080fd5b61095e848285610eaf565b509392505050565b60008135905061097581611142565b92915050565b600082601f83011261098c57600080fd5b813561099c848260208601610928565b91505092915050565b6000602082840312156109b757600080fd5b60006109c584828501610966565b91505092915050565b6000602082840312156109e057600080fd5b600082013567ffffffffffffffff8111156109fa57600080fd5b610a068482850161097b565b91505092915050565b6000610a1b8383610bb4565b905092915050565b610a2c81610e73565b82525050565b610a3b81610e73565b82525050565b6000610a4c82610dbc565b610a568185610ddf565b935083602082028501610a6885610dac565b8060005b85811015610aa45784840389528151610a858582610a0f565b9450610a9083610dd2565b925060208a01995050600181019050610a6c565b50829750879550505050505092915050565b6000610ac182610dc7565b610acb8185610dfb565b9350610adb818560208601610ebe565b610ae481611041565b840191505092915050565b6000610afa82610dc7565b610b048185610e0c565b9350610b14818560208601610ebe565b610b1d81611041565b840191505092915050565b6000610b35602a83610e0c565b9150610b4082611052565b604082019050919050565b6000610b58602a83610e0c565b9150610b63826110a1565b604082019050919050565b6000610b7b603a83610e0c565b9150610b86826110f0565b604082019050919050565b6000610b9e600083610df0565b9150610ba98261113f565b600082019050919050565b6000606083016000830151610bcc6000860182610a23565b5060208301518482036020860152610be48282610ab6565b9150506040830151610bf96040860182610c04565b508091505092915050565b610c0d81610ea5565b82525050565b610c1c81610ea5565b82525050565b6000610c2d82610b91565b9150819050919050565b60006020820190508181036000830152610c518184610a41565b905092915050565b60006020820190508181036000830152610c738184610aef565b905092915050565b60006040820190508181036000830152610c958185610aef565b9050610ca46020830184610a32565b9392505050565b60006040820190508181036000830152610cc58185610aef565b9050610cd46020830184610c13565b9392505050565b60006020820190508181036000830152610cf481610b28565b9050919050565b60006020820190508181036000830152610d1481610b4b565b9050919050565b60006020820190508181036000830152610d3481610b6e565b9050919050565b6000602082019050610d506000830184610c13565b92915050565b6000610d60610d71565b9050610d6c8282610f23565b919050565b6000604051905090565b600067ffffffffffffffff821115610d9657610d95611012565b5b610d9f82611041565b9050602081019050919050565b6000819050602082019050919050565b600081519050919050565b600081519050919050565b6000602082019050919050565b600082825260208201905092915050565b600081905092915050565b600082825260208201905092915050565b600082825260208201905092915050565b6000610e2882610ea5565b9150610e3383610ea5565b9250827fffffffffffffffffffffffffffffffffffffffffffffffffffffffffffffffff03821115610e6857610e67610f85565b5b828201905092915050565b6000610e7e82610e85565b9050919050565b600073ffffffffffffffffffffffffffffffffffffffff82169050919050565b6000819050919050565b82818337600083830152505050565b60005b83811015610edc578082015181840152602081019050610ec1565b83811115610eeb576000848401525b50505050565b60006002820490506001821680610f0957607f821691505b60208210811415610f1d57610f1c610fe3565b5b50919050565b610f2c82611041565b810181811067ffffffffffffffff82111715610f4b57610f4a611012565b5b80604052505050565b6000610f5f82610ea5565b9150610f6a83610ea5565b925082610f7a57610f79610fb4565b5b828206905092915050565b7f4e487b7100000000000000000000000000000000000000000000000000000000600052601160045260246000fd5b7f4e487b7100000000000000000000000000000000000000000000000000000000600052601260045260246000fd5b7f4e487b7100000000000000000000000000000000000000000000000000000000600052602260045260246000fd5b7f4e487b7100000000000000000000000000000000000000000000000000000000600052604160045260246000fd5b6000601f19601f8301169050919050565b7f506c656173652077616974203135206d696e75746573206265666f726520726560008201527f7375626d697474696e6700000000000000000000000000000000000000000000602082015250565b7f4661696c656420746f207769746864726177206d6f6e65792066726f6d20746860008201527f6520636f6e747261637400000000000000000000000000000000000000000000602082015250565b7f5468697320636f6e74726163742069732062726f6b652c20596f752063616e2760008201527f7420776974686472617720617420746865207468696d65203a28000000000000602082015250565b50565b61114b81610e73565b811461115657600080fd5b5056fea264697066735822122054f356b2c4cca4c4593c8599ba2fb5edfd59fc2a9f17dc9d324570061ef084d164736f6c63430008040033",
  "linkReferences": {},
  "deployedLinkReferences": {}
}